:020000040800F2
:1000000070040020050100083F1000088B0C000858
:100010003D10000871010008F31100080000000005
:100020000000000000000000000000009D1100081A
:100030007301000800000000411000089F11000833
:100040001F0100081F0100081F0100081F01000810
:100050001F0100081F0100081F0100081F01000800
:100060001F0100081F0100081F0100081F010008F0
:100070001F0100081F0100081F0100081F010008E0
:100080001F0100081F0100081F0100081F010008D0
:100090001F0100081F0100081F0100081F010008C0
:1000A0001F0100081F0100081F0100081F010008B0
:1000B0001F0100081F0100081F0100081F010008A0
:1000C0001F0100081F0100081F0100081F01000890
:1000D0001F0100081F0100081F0100081F01000880
:1000E0001F0100081F0100081F010008DFF810D0E1
:1000F00000F02CF80048004735120008AFF30080EC
:10010000700400200648804706480047FEE7FEE7E7
:10011000FEE7FEE7FEE7FEE7FEE7FEE7FEE7FEE7B7
:10012000F1110008ED000008D2B201E000F8012B47
:10013000491EFBD270470022F6E710B513460A4667
:1001400004461946FFF7F0FF204610BD064C074D48
:1001500006E0E06840F0010394E807009847103497
:10016000AC42F6D3FFF7C6FFA0120008C012000889
:10017000FEE7704770B5044600F004F90546601CC0
:1001800002D004480078044400F0FCF8401BA04270
:10019000FAD370BD040000202DE9F84FDFF8B891C4
:1001A000002409F1040A0AF1040B23460F270BF17E
:1001B000040EC9E00125A5402A40AA427DD1674E20
:1001C000D1F804C0ACEB0608B44532D014DCBCF165
:1001D000030F3AD009DCBCF1000F2AD0BCF1010FAB
:1001E0001CD0BCF1020F31D11DE0BCF1110F17D0B2
:1001F000BCF1120F2AD119E0B8F5881F19D006DC1E
:10020000B8F5803F15D0B8F5801F1FD111E0B8F5C3
:10021000001F0ED0B8F5041F18D10AE0CB6815E016
:10022000CB681B1D12E0CB6808330FE0CB680C33A2
:100230000CE08B682BB1012B4FF0080303D0456114
:1002400004E0042302E0056100E00023FF2A01D856
:10025000064601E000F104064FEA840501D9A5F144
:100260002005D6F8008007FA05FC28EA0C0803FAF6
:1002700005F548EA0508C6F800804D68ED0062D52E
:10028000374DAE6946F00106AE61AD6924F0030654
:1002900005F001050095334D06EB050CDCF8085020
:1002A000A607360F07FA06F825EA0805DFF8B88032
:1002B000404503D14FF0000817E044E0DFF8AC8080
:1002C000404502D14FF001080FE0DFF8A48040451F
:1002D00002D14FF0020808E0DFF89880404502D1D3
:1002E0004FF0030801E04FF0040808FA06F848EA66
:1002F0000508CCF808804D68D9F80060ED034D463C
:1003000001D5164300E096432E604D68DAF8006090
:10031000AD03554601D5164300E096432E604D6867
:10032000DBF80060ED025D4601D5164300E0964320
:100330002E604D68DEF80060AD02754601D51643AB
:1003400000E096432E60641C0D682A46E5407FF469
:1003500031AFBDE8F88F000000040140000011102B
:10036000001002400000014000080140000C014064
:1003700000100140001401400AB1016170470904F6
:10038000FBE700000148806870470000040000207F
:10039000024881680278114481607047040000209F
:1003A000074810B5016841F010010160032000F01A
:1003B00067F8002000F006F800F024F8002010BDD7
:1003C0000020024070B50D4D04464FF47A71287834
:1003D000B1FBF0F00A490968B1FBF0F000F041FC14
:1003E00048B9102C07D200222146501E00F028F8F0
:1003F00000206C6070BD012070BD00000400002072
:10040000100000200C4808B5816941F001018161AC
:10041000816901F001010091C16941F08051C16120
:10042000C06900F0805000900448416821F0E0610C
:1004300041F00071416008BD001002400000014021
:10044000F0B40E4B1B680C46C3F30223C3F107053F
:10045000042D00D90425191D072901D2002300E02D
:10046000DB1E012606FA05F1491E214099409E40F7
:10047000761E16403143F0BC00F0BCBE0CED00E02F
:10048000064900F0070208684FF6FF03184040EAEB
:100490000220034A10430860704700000CED00E0A2
:1004A0000000FA052DE9F0470F46050061D0434EE4
:1004B000306800F00700B84209D2306820F0070029
:1004C00038433060306800F00700B84251D12868E6
:1004D0003B4C810712D5400703D5606840F4E060CB
:1004E00060602878000703D5606840F46050606061
:1004F0006068A96820F0F000084360602878C007B1
:1005000028D06868012810D02168022810D08907F7
:1005100000292EDA616821F0030101436160FFF7D1
:1005200031FF804641F288390DE021688903EFE709
:100530008901EDE7FFF726FFA0EB0801494502D945
:100540000320BDE8F0876068696800F00C00B0EB3C
:10055000810FEFD1306800F00700B8420BD9306846
:1005600020F0070038433060306800F00700B842E0
:1005700001D00120E5E72878400705D56068E968E3
:1005800020F4E060084360602878000706D56068C2
:10059000296920F4605040EAC100606000F018F85A
:1005A0006168084AC1F30311515CC84006490860FC
:1005B00006480068FFF706FF0020C2E7002002405F
:1005C00000100240901200081000002008000020D7
:1005D00012A185B00FC98DE80F0014A0144A00685D
:1005E00004905168134801F00C03042B10D0082B21
:1005F0000ED1C1F38343C9031DF803000AD5516826
:1006000004AAC1F34041515C0A4A5043B0FBF1F0E7
:1006100005B0704708494843FAE7000002030405A3
:10062000060708090A0B0C0D0E0F1010010200003E
:100630000010024000127A0000093D002DE9F84F39
:10064000040070D02078C04DC00749D06868C0F35E
:100650008100012807D06868C0F38100022809D111
:100660006868C00306D52868800339D5606800280B
:10067000E7D035E06068B0F5803F0BD010B1B0F541
:10068000A02F11D0286820F480302860286820F43A
:10069000802002E0286840F480302860606890B1D3
:1006A000FFF770FE06460AE0286840F480202860C4
:1006B000F0E700BFFFF766FE801B642873D8286848
:1006C0008003F7D50CE0FFF75DFE064605E000BFAE
:1006D000FFF758FE801B6428F0D828688003F7D401
:1006E00020789A4E80074FF001094FF0000839D565
:1006F000686810F00C0F07D06868C0F3810002280A
:1007000009D16868C00306D42868800714D5206919
:10071000012808D110E02069B0B1C6F80090FFF7B9
:1007200031FE074605E00AE1FFF72CFEC01B022858
:10073000C4D828688007F7D52868616920F0F800D8
:1007400040EAC10028600DE0C6F80080FFF71AFEFD
:10075000074604E0FFF716FEC01B022823D82868CE
:100760008007F7D4207800072CD57948A169D9B142
:10077000C0F80090FFF706FE074604E0FFF702FE10
:10078000C01B02280FD8686A8007F7D571484FF45C
:10079000FA510068B0FBF1F0009000BF0098411ED4
:1007A0000091FAD20EE080E0C0F80080FFF7EAFD89
:1007B000074604E0FFF7E6FDC01B022875D8686A0B
:1007C0008007F7D42078400760D5E8690027C0008B
:1007D00008D4E86940F08050E861E869012700F03A
:1007E000805000905C480168C90513D401688346B5
:1007F00041F480710160FFF7C5FD824606E000BF4D
:10080000FFF7C0FDA0EB0A0064284ED8DBF800001B
:10081000C005F5D5E06801280AD008B1052813D035
:10082000286A20F001002862286A20F0040002E013
:10083000286A40F001002862E06841F2883B98B1E4
:10084000FFF7A0FD82460BE0286A40F00400286212
:10085000EEE700BFFFF796FDA0EB0A0159455AD815
:10086000286A8007F6D50CE0FFF78CFD824605E08C
:10087000FFF788FDA0EB0A0159454CD8286A80078C
:10088000F6D41FB1E86920F08050E861E06988B3D0
:100890006968C1F38101022944D00228C6F860804A
:1008A00004D0FFF76FFD044638E034E0FFF76AFD3F
:1008B000074604E0FFF766FDC01B02282BD8286816
:1008C0008001F7D4206AB0F5803F05D16868A1683F
:1008D00020F4003008436860D4E9080108436968DF
:1008E00021F4741108436860C6F86090FFF74AFD70
:1008F000044606E025E000BFFFF744FD001B022888
:1009000009D828688001F7D51BE000BFFFF73AFD42
:10091000001B022802D90320BDE8F88F2868800157
:10092000F4D40EE00128F7D06868226A00F4803120
:10093000914204D1616A00F47010884201D0012014
:10094000EAE70020E8E70000001002400000424211
:1009500080044242100000200070004070B5040086
:1009600009D0606A002540B125616561A56294F8EF
:10097000510040B10CE0012070BD6068B0F5827F8D
:10098000F4D0E561F2E784F85050204600F040F8DA
:10099000022084F851002068016821F040010160C4
:1009A000A088218900F4827001F404410843A189E0
:1009B00001F400610843217C01F002010843217D1C
:1009C00001F001010843218B01F400710843217FEC
:1009D00001F03801084394F8201001F08001084329
:1009E000218D01F40051084321680860A0690421A9
:1009F00001EA1040216848602068C16921F4006163
:100A0000C1616565012084F85100002070BD0000BF
:100A100030B585B0002400940194029403940068DA
:100A20001449884223D11448816941F4805181617D
:100A3000816901F480510491816941F0040181616F
:100A400080690E4D00F004000490A0200090022068
:100A500001900320039069462846FFF79DFB402044
:100A6000CDE90004694628460294FFF795FB05B0DE
:100A700030BD00000030014000100240000801407D
:100A80002DE9F84F044690F8500000270A9E1D46B5
:100A900092468B464FF0010901280ED0012084F8C0
:100AA0005000FFF76FFC804694F851006168012800
:100AB0000CD0B1F5827F07D102E00220BDE8F88FAB
:100AC000A16809B9042801D00227C2E0BBF1000FD8
:100AD00027D0BAF1000F24D01DB394F85100042898
:100AE00002D0052084F8510000206065C4F838A0C9
:100AF000E587A587C4F830B0E586A58620646064E4
:100B000020680168490603D4016841F04001016092
:100B1000E068B0F5006F606805D0E8B3012D46D0FD
:100B20007FE0012795E008B1012D39D1206B2168C4
:100B30000088C860206B801C2063E08E401EE08629
:100B40002EE02068816889070FD5E18E69B1B9F17F
:100B5000010F0AD1216B0988C160206B801C2063C2
:100B6000E08E401EE0864FF0000920688168C907CA
:100B70000CD0E18F51B1C068A16B0880A06B801CC4
:100B8000A063E08F401EE0874FF00109FFF7FAFBFA
:100B9000A0EB0800B04200E009E001D3701C50D186
:100BA000E08E0028CDD1E08F0028CAD13FE0206B35
:100BB000216800780873206B401C2063E08E401E83
:100BC000E0862EE02068816889070FD5E18E69B143
:100BD000B9F1010F0AD1216B09780173206B401C18
:100BE0002063E08E401EE0864FF000092068816897
:100BF000C9070CD0E18F51B1C068A16B0870A06B20
:100C0000401CA063E08F401EE0874FF00109FFF712
:100C1000B9FBA0EB0800B04202D3701C01D010E079
:100C20007EB1E08E0028CDD1E08F0028CAD14246A7
:100C30003146204600F046FA28B1012720206065A1
:100C400007E0032705E0A06818B92068C16880683C
:100C50000090012084F85100002084F850003846AC
:100C60002CE710B5401EB0F1807F01D3012010BDEC
:100C70004FF0E02460610F21601700F0BBFA002004
:100C8000A06107202061002010BDFEE710B51420F0
:100C900000F0AEF8800705D10321BDE81040142014
:100CA00000F0C8B810BD7CB50446002529460D20CB
:100CB00000F056F9932020702020607001A8234690
:100CC0000090022219460C2000F0C0F8010009D162
:100CD000225C401C5540C0B20428F9D3205CA842D5
:100CE00000D0022108467CBD2DE9F0410E460746A2
:100CF00015460421052000F036F880210A2000F076
:100D000099F8002405E0395D092000F029F9641CF8
:100D1000E4B2B442F7D30321012000F021F9FF240B
:100D2000052000F065F8641E14F0FF0401D04007B0
:100D3000F6D5222000F05CF82870212000F058F849
:100D40006870BDE8F08170B505460146262000F0C8
:100D500056F8040003D12846FFF7A5FF044600F02B
:100D60000EF8204670BD70B50C46054600F040F800
:100D700020EA04012846BDE8704000F0F1B80EB545
:100D800050208DF8040000208DF805000DF10602BA
:100D9000022101A8FFF7A8FF02A801AB00900422DE
:100DA00019460C2000F052F80EBD10B500F03EF8C8
:100DB0008D212A2000F0D4F83E212B2000F0D0F81D
:100DC0001E212D2000F0CCF800212C2000F0C8F8C6
:100DD0007021262000F0C4F84021152000F0C0F852
:100DE0003D21112000F0BCF8BDE81040FFF74EBFD8
:100DF0007E2101EA400040F0800000F033B97CB56C
:100E00000C46054607210D2000F0AAF8257001A820
:100E100023460090012219460C2000F017F818B95B
:100E2000BDF80410102900D002207CBD0F21012044
:100E300000F096B870B50C460546FFF7D9FF40EABA
:100E400004012846BDE8704000F08AB82DE9FF5F34
:100E500000270226DDF838A015468B468146B846A5
:100E60000C2805D0B9F10E0F05D11227102001E092
:100E700077273020804647F08001022000F070F88C
:100E800080210420FFF76FFF80210A20FFF7D2FFA7
:100E90000021012000F064F8002406E01BF8041093
:100EA000092000F05DF8641CA4B2AC42F6D34946B8
:100EB000012000F055F8B9F10C0F03D180210D206D
:100EC000FFF7B8FF4FF4FA650420FFF791FF6D1E9E
:100ED0002D0404462D0C04D0E00702D114EA080FBB
:100EE000F2D080210D20FFF73EFF35B10620FFF73D
:100EF0007FFF10F01B0F04D0022604B03046BDE87F
:100F0000F09F00263C40E00700D00126B9F10C0F0D
:100F1000F3D10A20FFF76CFF04460C20FFF768FFAF
:100F200010F007004FEAC40104D008390844AAF8B9
:100F3000000001E0AAF8001024B1102C04D91024FC
:100F4000002503E00124FBE7002506E00920FFF768
:100F50004FFF039948556D1CADB2A542F6D3CCE7BF
:100F60007E2202EA400000F095B800002DE9F04131
:100F700086B000242048009401940294039481696F
:100F800041F010018161816901F0100104918169D2
:100F900041F020018161816901F0200104918169A2
:100FA00041F0040181618069144F00F004004FF4A6
:100FB00000550490002229463846FFF7DDF9DFF896
:100FC0004080012210214046FFF7D6F90095022605
:100FD00001250396CDE9015469463846FFF7DCF850
:100FE0001020CDE90005CDE9024669464046FFF7ED
:100FF000D3F806B0BDE8F0810010024000100140B7
:10100000000801400C480B494FF4007201604FF496
:101010008271416000218160C1600161C0E90512F7
:101020002822C0E90721416281620A21C162FFF7DB
:1010300095BC00000030014014000020FEE770471E
:10104000704700000EB501238DF804000A200090BF
:1010500002AA01A90248FFF713FD9DF808000EBD82
:101060001400002070B50A4D0446002210212846C5
:10107000FFF782F92046FFF7E5FF0020FFF7E2FFC8
:101080000446012210212846FFF776F9204670BD5C
:101090000008014070B50A4C0E460546002210219A
:1010A0002046FFF769F92846FFF7CCFF3046FFF7E7
:1010B000C9FF2046BDE8704001221021FFF75CB94E
:1010C0000008014038B50B460092044600228021FA
:1010D00000F008F8002804D0606D40F02000606542
:1010E000032038BD2DE9F8431E4691468846044644
:1010F000089DFFF747F9401B351AFFF743F90746EC
:1011000025480068C0F3CB30684338E0701C37D006
:10111000FFF738F9C01BA84203D215B1009860B39D
:101120002CE02068416821F0E00141606068B0F582
:10113000827F0BD1A068B0F5004F02D0B0F5806F70
:1011400004D12068016821F040010160A06AB0F577
:10115000005F09D12068016821F400510160206816
:10116000016841F400510160012084F85100002021
:1011700084F850000320BDE8F8830025401E00904D
:101180002068816838EA010004D000214945BDD1BA
:101190000020F0E70121F9E7100000207047FFF779
:1011A000F7B830B58FB028216846FEF7C4FF142188
:1011B0000AA8FEF7C0FF01210804CDE900100024B1
:1011C000029402250491CDE907504FF4E0100990F4
:1011D0006846FFF733FA0F20CDE90A056802CDE92A
:1011E0000C4002210AA80E94FFF75CF90FB030BD45
:1011F0007047FEE70907090E002804DB00F1E02034
:1012000080F80014704700F00F0000F1E02080F833
:10121000141D704702E008C8121F08C1002AFAD145
:1012200070477047002001E001C1121F002AFBD166
:1012300070470000FFF7B4F8FFF7B3FFFFF796FE23
:10124000FFF7E0FEFFF7B1FD4FF47A70FEF792FF73
:101250000D4D0E4F00244FF400560B48FFF773FD61
:1012600060B1012231463846FFF786F82C706C7069
:10127000AC70EC706420FEF77DFFEEE70022314693
:101280003846FFF779F8F5E700000020001001402C
:101290000000000000000000010203040607080926
:1012A000C012000800000020140000001412000802
:1012B000D4120008140000205C040000241200086E
:1012C000000000000100000010000000000000000D
:0412D0000024F40002
:04000005080000ED02
:00000001FF
